{
  "contractName": "Scm",
  "abi": [
    {
      "constant": false,
      "inputs": [
        {
          "name": "ob",
          "type": "string"
        }
      ],
      "name": "setdata",
      "outputs": [],
      "payable": false,
      "stateMutability": "nonpayable",
      "type": "function"
    },
    {
      "constant": true,
      "inputs": [],
      "name": "get",
      "outputs": [
        {
          "name": "",
          "type": "string"
        }
      ],
      "payable": false,
      "stateMutability": "view",
      "type": "function"
    }
  ],
  "bytecode": "0x608060405234801561001057600080fd5b506102d7806100206000396000f30060806040526004361061004c576000357c0100000000000000000000000000000000000000000000000000000000900463ffffffff1680636d4ce63c14610051578063900cf582146100e1575b600080fd5b34801561005d57600080fd5b5061006661014a565b6040518080602001828103825283818151815260200191508051906020019080838360005b838110156100a657808201518184015260208101905061008b565b50505050905090810190601f1680156100d35780820380516001836020036101000a031916815260200191505b509250505060405180910390f35b3480156100ed57600080fd5b50610148600480360381019080803590602001908201803590602001908080601f01602080910402602001604051908101604052809392919081815260200183838082843782019150505050505091929192905050506101ec565b005b606060008054600181600116156101000203166002900480601f0160208091040260200160405190810160405280929190818152602001828054600181600116156101000203166002900480156101e25780601f106101b7576101008083540402835291602001916101e2565b820191906000526020600020905b8154815290600101906020018083116101c557829003601f168201915b5050505050905090565b8060009080519060200190610202929190610206565b5050565b828054600181600116156101000203166002900490600052602060002090601f016020900481019282601f1061024757805160ff1916838001178555610275565b82800160010185558215610275579182015b82811115610274578251825591602001919060010190610259565b5b5090506102829190610286565b5090565b6102a891905b808211156102a457600081600090555060010161028c565b5090565b905600a165627a7a723058207bbd5d5726839a48890189440a77fee29a45f5cac0e1bf772cd425e354216d640029",
  "source": "pragma solidity ^0.4.18;\r\n\r\ncontract Scm{\r\n    \r\n  string data;\r\n  \r\n      function setdata(string ob){\r\n          data = ob;\r\n      } \r\n      \r\n      function get()constant public returns(string){\r\n          \r\n          return data;\r\n          \r\n      }\r\n    \r\n    \r\n  \r\n}",
  "sourcePath": "D:\\truffle\\contracts\\Scm.sol",
  "compiler": {
    "name": "solc",
    "version": "0.4.24+commit.e67f0147.Emscripten.clang"
  },
  "schemaVersion": "2.0.1",
  "updatedAt": "2018-07-26T07:17:28.670Z"
}